:100000000C9472000C9493000C9493000C94930045
:100010000C9493000C9493000C9493000C94930014
:100020000C9493000C9493000C9493000C94930004
:100030000C9493000C9493000C9493000C949300F4
:100040000C9493000C9493000C9493000C949300E4
:100050000C9493000C9493000C9493000C949300D4
:100060000C9493000C9493000C9493000C949300C4
:100070000C9493000C9493000C9493000C949300B4
:100080000C9493000C9493000C9493000C949300A4
:100090000C9493000C9493000C9493000C94930094
:1000A0000C9493000C9493000C9493000C94930084
:1000B0000C9493000C9493000C9493000C94930074
:1000C0000C9493000C9493000C9493000C94930064
:1000D0000C9493000C9493000C9493000C94930054
:1000E0000C94930011241FBECFEFD1E2DEBFCDBF31
:1000F00000E00CBF12E0A0E0B2E0E6E1F4E000E0D6
:100100000BBF02C007900D92A230B107D9F722E0D1
:10011000A2E0B2E001C01D92AB32B207E1F70E944B
:100120008F010C9409020C9400008FEF81B984B9FF
:100130001AB80895E4E0F1E0808183608083E5E00F
:10014000F1E0808183608083089589B18F70089584
:100150002FEF8FEB9FE0215080409040E1F700C0EF
:100160000000109A2FEF8FEF93E2215080409040D3
:10017000E1F700C0000028982FEF8FEB9FE021509F
:1001800080409040E1F700C00000289A119A81E079
:100190008093020208952FEF8FEB9FE02150804063
:1001A0009040E1F700C0000011982FEF8FEF93E22D
:1001B000215080409040E1F700C0000029982FEFC7
:1001C0008FEB9FE0215080409040E1F700C000009D
:1001D000299A10980C94A80082B182B985B18360E5
:1001E00085B92FEF8FEF90EE215080409040E1F7DE
:1001F00000C00000089580910202882321F010922F
:1002000002020C94CB000895109235018FE5809383
:10021000340188E98093310186E0809332010895AA
:100220004F925F926F927F92AF92BF92CF92DF9286
:10023000EF92FF920F931F93CF93DF93CDB7DEB76B
:1002400029013A01621B730B840B950B2A893B89A8
:100250004C895D892A193B094C095D092A8B3B8B26
:100260004C8B5D8B9B01AC016A897B898C899D8954
:100270000E949E01E418F50806091709A8019701D4
:100280000E94AE012A0D3B1D4C1D5D1DCA01B90126
:10029000DF91CF911F910F91FF90EF90DF90CF9062
:1002A000BF90AF907F906F905F904F900895909126
:1002B0001D02913039F48091120289278093120235
:1002C00010921D0290911E02913039F48091280203
:1002D00089278093280210921E0290911F0291306C
:1002E00039F48091290289278093290210921F02F4
:1002F00090912002913039F48091230289278093D4
:1003000023021092200290912102913039F48091C1
:100310002A02892780932A021092210208950E94BE
:1003200095000E949A000E9404010E94EC008091B6
:100330002A028823D1F30E94FB00F9CFDB018F93BF
:100340009F930E94CD01BF91AF91A29F800D911DFF
:10035000A39F900DB29F900D11240895052E97FB39
:100360001EF400940E94C50157FD07D00E94D801D9
:1003700007FC03D04EF40C94C50150954095309580
:1003800021953F4F4F4F5F4F089590958095709501
:1003900061957F4F8F4F9F4F08950E94FA01A59F4F
:1003A000900DB49F900DA49F800D911D1124089570
:1003B000A1E21A2EAA1BBB1BFD010DC0AA1FBB1F69
:1003C000EE1FFF1FA217B307E407F50720F0A21BDB
:1003D000B30BE40BF50B661F771F881F991F1A9448
:1003E00069F760957095809590959B01AC01BD0172
:1003F000CF010895A29FB001B39FC001A39F700DCC
:10040000811D1124911DB29F700D811D1124911D1C
:060410000895F894FFCFEF
:02041600C8FF1D
:040000050080022A4B
:00000001FF
