:100000000C9472000C9493000C9493000C94930045
:100010000C9493000C9493000C9493000C94930014
:100020000C9493000C9493000C9493000C94930004
:100030000C9493000C9493000C9493000C949300F4
:100040000C9493000C9493000C9493000C949300E4
:100050000C9493000C9493000C9493000C949300D4
:100060000C9493000C9493000C9493000C949300C4
:100070000C9493000C9493000C9493000C949300B4
:100080000C9493000C9493000C9493000C949300A4
:100090000C9493000C9493000C9493000C94930094
:1000A0000C9493000C9493000C9493000C94930084
:1000B0000C9493000C9493000C9493000C94930074
:1000C0000C9493000C9493000C9493000C944F04A4
:1000D0000C9493000C9493000C9493000C94930054
:1000E0000C94930011241FBECFEFD1E2DEBFCDBF31
:1000F00000E00CBF12E0A0E0B2E0E8E0FCE000E0CD
:100100000BBF02C007900D92A832B107D9F722E0C9
:10011000A8E2B2E001C01D92AE39B207E1F70E9439
:10012000A0050C9402060C9400008DE080938100E1
:1001300082E080936F0080ED92E09093890080933D
:10014000880008958FEF8093040181B91DB88093D2
:10015000070114B80895109A1198E5E0F1E0808144
:10016000826080838081816080830895E5E0F1E092
:100170008081816080832FEF8FEF98E02150804055
:100180009040E1F700C0000080818E7F8083109A4C
:10019000119A2FEF8FEF98E0215080409040E1F7C7
:1001A00000C000008081826080832FEF8FEF98E095
:1001B000215080409040E1F700C0000080818D7F99
:1001C0008083109811982FEF8FEF98E02150804096
:1001D0009040E1F700C000000895E5E0F1E01082F2
:1001E0002FEF8FEF98E0215080409040E1F700C062
:1001F00000008FEF80832FEF8FEF98E02150804039
:100200009040E1F700C000000895109A119829E984
:1002100089E993E0215080409040E1F700000E947E
:10022000ED001098119A2FEF8FEB96E0215080404F
:100230009040E1F700C000000895E5E0F1E0808122
:100240008D7F80832FEF8FE191E02150804090409F
:10025000E1F700C0000080818E7F808329E989EB6F
:1002600094E0215080409040E1F70000808182605E
:1002700080832FEF8FE191E0215080409040E1F7A3
:1002800000C0000080818160808329E989EB94E0CF
:10029000215080409040E1F700000895E5E0F1E052
:1002A00080818E7F80832FEF8FE191E0215080400D
:1002B0009040E1F700C0000080818D7F808329E9B4
:1002C00089EB94E0215080409040E1F7000080816C
:1002D000816080832FEF8FE191E02150804090403A
:1002E000E1F700C0000080818260808329E989EB0A
:1002F00094E0215080409040E1F700000895119A69
:1003000010982FEF8FEF98E0215080409040E1F758
:1003100000C00000E5E0F1E080818E7F8083808175
:100320008D7F80832FEF8FEB96E0215080409040AF
:10033000E1F700C00000808181608083808182605D
:1003400080832FEF8FE593E0215080409040E1F7CC
:1003500000C000001198109A2FEF8FEF98E0215005
:1003600080409040E1F700C000000895E5E0F1E032
:1003700080818D7F80832FEF8FE191E0215080403D
:100380009040E1F700C0000080818E7F80832FEFD6
:100390008FED97E0215080409040E1F700C00000D1
:1003A0008081826080832FEF8FE191E02150804037
:1003B0009040E1F700C000008081816080832FEFD2
:1003C0008FEB96E0215080409040E1F700C00000A4
:1003D00080818E7F808329E989E993E021508040E4
:1003E0009040E1F700001098109237021092360208
:1003F0000895109A2FEF8FEF98E0215080409040A1
:10040000E1F700C00000E5E0F1E080818D7F8083AE
:100410008081816080832FEF8FE392E021508040C4
:100420009040E1F700C0000080818260808380817D
:100430008E7F80832FEF8FE392E0215080409040A9
:10044000E1F700C000000895E5E0F1E080818160FF
:10045000808380818D7F80831198109A0895E5E0D4
:10046000F1E080818D7F80832FEF8FE392E0215038
:1004700080409040E1F700C0000080818E7F808343
:100480002FEF8FEB96E0215080409040E1F700C0C5
:1004900000008081826080832FEF8FE392E0215003
:1004A00080409040E1F700C000008081816080833F
:1004B0002FEF8FEB96E0215080409040E1F700C095
:1004C000000080818D7F808322E383EB92E02150C6
:1004D00080409040E1F700C000C0119A80818E7F7B
:1004E00080832CEC8CEC91E0215080409040E1F72F
:1004F00000C080818160808310922F0210922E02B2
:100500000895E5E0F1E080818E7F80832FEF8FEB0F
:1005100096E0215080409040E1F700C000008081CB
:10052000816080832FEF8FEB96E0215080409040D8
:10053000E1F700C000000895E5E0F1E080818E7FE2
:10054000808329E989E198E0215080409040E1F7DB
:10055000000080818160808380818D7F80832FEF88
:100560008FE794E0215080409040E1F700C0000008
:1005700080818260808380818E7F80830895E5E022
:10058000F1E080818D7F808380818E7F808322E374
:1005900083EB92E0215080409040E1F700C000C022
:1005A00080818260808380818160808326E686E608
:1005B00095E0215080409040E1F780818D7F8083DD
:1005C00080818E7F808311980895E5E0F1E080813D
:1005D0008E7F808380818D7F80832FEF8FEF98E0E7
:1005E000215080409040E1F700C000008081816090
:1005F000808380818260808326E686E695E02150B4
:1006000080409040E1F780818E7F80832FEF8FE7DD
:1006100094E0215080409040E1F700C00000109825
:100620002FEF8FEB96E0215080409040E1F700C023
:1006300000008081816080830895E5E0F1E08081A1
:100640008E7F808380818D7F80832FEF8FEF98E076
:10065000215080409040E1F700C00000808181601F
:10066000808380818260808326E686E695E0215043
:1006700080409040E1F780818D7F80832FEF8FE76E
:1006800094E0215080409040E1F700C00000119AB2
:100690002FEF8FEB96E0215080409040E1F700C0B3
:1006A00000008081826080830895E5E0F1E0808130
:1006B0008E7F80832FEF8FE392E021508040904027
:1006C000E1F700C0000080818D7F80832FEF8FEBEA
:1006D00096E0215080409040E1F700C0000080810A
:1006E000816080832FEF8FE392E021508040904023
:1006F000E1F700C000008081826080832FEF8FEBE4
:1007000096E0215080409040E1F700C000008081D9
:100710008E7F808322E383EB92E0215080409040E3
:10072000E1F700C000C0109880818D7F80832CECA1
:100730008CEC91E0215080409040E1F700C0808136
:10074000816080838081826080830895E5E0F1E0AC
:1007500080818D7F80832FEF8FE392E02150804056
:100760009040E1F700C0000080818E7F80832FEFF2
:100770008FEB96E0215080409040E1F700C00000F0
:100780008081826080832FEF8FE392E02150804050
:100790009040E1F700C000008081816080832FEFEE
:1007A0008FEB96E0215080409040E1F700C00000C0
:1007B00080818D7F808322E383EB92E02150804013
:1007C0009040E1F700C000C0119A80818E7F808345
:1007D0002CEC8CEC91E0215080409040E1F700C07F
:1007E0008081816080838081826080830895E5E0DC
:1007F000F1E080818D7F808380818E7F808329E9F5
:1008000089E993E0215080409040E1F70000808129
:100810008260808329E989E993E0215080409040FB
:10082000E1F700000895E5E0F1E080818E7F8083AC
:10083000119A109A2FEF8FEF98E02150804090404E
:10084000E1F700C00000808181608083119A109AD6
:100850002FEF8FEF98E0215080409040E1F700C0EB
:10086000000080818D7F8083119A109A2FEF8FEF87
:1008700098E0215080409040E1F700C00000808166
:100880008260808308951092D5008FE58093D40014
:1008900088E98093D10086E08093D20008951F926A
:1008A0001FB61F9211242F932BB72F933F934F9373
:1008B0005F938F939F93AF93BF93EF93FF9321E049
:1008C00030E030936D0220936C02E091D6008E2FC1
:1008D00090E09093150280931402909345028093C8
:1008E0004402AC01495C51094633510528F5909307
:1008F0001302809312024E5151094031510540F4C8
:10090000E75EF0E0EE0FFF1FE259FD4F31832083D9
:100910009093430280934202FF91EF91BF91AF9178
:100920009F918F915F914F913F912F912BBF2F916D
:100930001F901FBE1F901895893C910548F7A09104
:100940001202A95CA03120F7B0E0A85EBD4FEC9385
:10095000DFCF80918A0290918B02019731F40E943F
:10096000AB0010928B0210928A0280918C029091BF
:100970008D02019731F40E94240210928D02109290
:100980008C028091820290918302019771F4809190
:100990003C0290913D0221E0822790933D0280939A
:1009A0003C02109283021092820280918602909102
:1009B0008702019771F480913A0290913B0221E005
:1009C000822790933B0280933A0210928702109202
:1009D00086028091840290918502019731F41198EA
:1009E000109A109285021092840280918802909150
:1009F0008902019731F4119A10981092890210928D
:100A0000880280917C0290917D02019771F480911F
:100A10002C0290912D0221E0822790932D02809349
:100A20002C0210927D0210927C02809180029091A3
:100A30008102019771F4809130029091310221E09E
:100A4000822790933102809330021092810210929B
:100A5000800280917A0290917B02019771F48091DB
:100A600036029091370221E08227909337028093DB
:100A7000360210927B0210927A0280917E0290914F
:100A80007F02019771F480912E0290912F0221E054
:100A9000822790932F0280932E0210927F02109251
:100AA0007E0280916E0290916F02019731F40E9454
:100AB000E50210926F0210926E0280917002909186
:100AC0007102019731F40E94550310927102109245
:100AD00070028091720290917302019731F40E942A
:100AE0001D03109273021092720280917402909111
:100AF0007502019731F40E94A603109275021092BC
:100B000074028091760290917702019771F480913E
:100B100028029091290221E0822790932902809354
:100B200028021092770210927602809178029091BA
:100B30007902019721F410927902109278020895B7
:100B400078940E94A2000E9443040E94AB0080910E
:100B5000480290914902892B11F00E94ED0080918A
:100B6000460290914702892B11F00E94B6008091B5
:100B70003E0290913F02892B11F00E940501809165
:100B80003C0290913D02892B11F00E941D01809141
:100B90003A0290913B02892B11F00E944E01809104
:100BA000380290913902892B11F00E947F018091C7
:100BB000360290913702892B11F00E94B601809184
:100BC000300290913102892B11F00E94F90180913D
:100BD0002E0290912F02892B11F00E942F028091FA
:100BE0002C0290912D02892B11F00E94810280919C
:100BF000280290912902892B11F00E94F7030E948C
:080C0000A904A5CFF894FFCF71
:100C0800C9C80102030405060708090A0B0C0D0EE2
:100C18000F10FF00FF00C8006464646464646464C7
:080C28006464646464646464A4
:040000050080024A2B
:00000001FF
